:100000000B308A000E2B0000FF00030E8301A100BD
:100010000A08A0008A010408A2007708A300780853
:10002000A4007908A5007A08A60003170D08031399
:10003000A70003170F080313A80003170C080313E6
:10004000A90003170E080313AA00831383128C3030
:100050008400001C2D280C184E2822088400230838
:10006000F7002408F8002508F9002608FA002708F8
:1000700003178D000313280803178F0003132908A3
:1000800003178C0003132A0803178E00031320089C
:100090008A00210E8300FF0E7F0E09008A110A12CA
:1000A0005E280A108A100A11820749346E347634A9
:1000B00061346C3469346434003400340130BF0777
:1000C0000318C00A0319C10A0319C20A0C108A11C5
:1000D0000A122D280D05CD34EE3AF4322014B01654
:1000E000B51C291D20000D05C83775392014B01620
:1000F000B219291D20000D05C4307910A818AD19BA
:10010000B1143A1000010D05CD376E3A6810A818E9
:10011000AD18B2143A1000010D05D932613920141E
:10012000653C3A1032183119291D20000D058A212D
:10013000C329A021A021EF36F034EC327210653CC7
:100140005F3AE93665176310653CE1367036651035
:10015000733A6139F434EE330D050A00D23084006D
:10016000831300080319C1280630F800F701F70BC4
:10017000B728F80BB6287B30F700F70BBD28800BAB
:10018000B42808000B088316D20083128B13831641
:1001900003178C170C14000000000313D21FD32880
:1001A00083128B178316831203170C087F390319E8
:1001B000362983160313D200831203170D08831602
:1001C0000313D300831203170F0883160313D400FD
:1001D000520883120C1EEA289900831653088312D2
:1001E00003178D00831603135408831203178F001F
:1001F00003130B088316D50083128B138316031782
:100200008C170C14000000000313D51F0A29831259
:100210008B178316831203170C0D0E0D7F390319EC
:10022000362983160313D200831203170D08831691
:100230000313D300831203170F0883160313D4008C
:10024000520883120C1E2229990083165308831228
:1002500003178D00831603135408831203178F00AE
:100260008D0A03198F0A0313C228031703138A1573
:100270000A12582B3F08F8000F08FA000E08F70082
:100280000F087A02031D3C29770883160C10F90029
:1002900083123F087802031957290F08FA000E0845
:1002A000F7000F087A02031D4D29770858297908AD
:1002B0007A08F7003F08F8004008F9004108FA0002
:1002C00042088316D600D60CFA0CF90CF80CF70C81
:1002D000D60CFA0CF90CF80CF70CD60CFA0CF90C3D
:1002E000F80CF70CD60CFA0CF90CF80CF70CD60C31
:1002F000FA0CF90CF80CF70C0C1483120800C0303F
:100300008B043A217A08C6007908C5007808C40031
:100310007708C300CA01C901C801C7018A150A12BA
:100320005B2B3A217A088316D9007908D80078081F
:10033000D7007708D600831243088316D6028312AB
:100340004408031C440FA529A8298316D702831249
:100350004508031C450FAD29B0298316D802831226
:100360004608031C460FB529B8298316D902831203
:100370008316D908031DC629D808031DC629D70826
:10038000031DC62956084B3C0318E529013083128A
:10039000C707003003180130C807003003180130C8
:1003A000C907003003180130CA074C30C3070030BA
:1003B00003180130C407003003180130C5070030AE
:1003C00003180130C6079129831683123A210800C9
:1003D0009121831652085304031D022A5308FA0080
:1003E0005208840083135318831783124708800030
:1003F000840A48088000840A49088000840A4A0860
:100400008000831683124708F7004808F80049085F
:10041000F9004A08FA008A150A126A2B8318132A6F
:10042000103084008317831668086C0680398312A5
:100430000317950083160313E81F292AE509E60927
:10044000E709E809E50A0319E60A0319E70A0319A7
:10045000E80AEC1F362AE909EA09EB09EC09E90A7E
:100460000319EA0A0319EB0A0319EC0AF701F80168
:10047000F901FA018312031790019101920193018E
:10048000831603136C086B046A0469040319AA2A0F
:100490002030831203179400031083160313E50D15
:1004A000E60DE70DE80D83120317900D910D920DE7
:1004B000930D831603136C08831203171302031D95
:1004C000772A831603136B08831203171202031D86
:1004D000772A831603136A08831203171102031D78
:1004E000772A831603136908831203171002031C6B
:1004F000A22A831603136908831203179002831636
:1005000003136A08031C6A0F862A8B2A83120317B7
:100510009102831603136B08031C6B0F902A952A14
:10052000831203179202831603136C08031C6C0FCB
:100530009A2A9F2A83120317930283160313031424
:1005400083120317F70DF80DF90DFA0D940B4C2AD1
:100550008316031383120317951FB92AF709F809A5
:10056000F909FA09F70A0319F80A0319F90A03192C
:10057000FA0A10088000840A11088000840A120810
:100580008000840A1308800003130800F801F901B1
:10059000F701FA0183166408031DD12A63080319C1
:1005A000EB2A1030E5000310E10DE20DF70DFA0D16
:1005B00064087A02031DDE2A63087702031CE72A17
:1005C0006308F702031CFA036408FA020314F80D27
:1005D000F90DE50BD32A8312080083165E08003A52
:1005E00083120319152B023A0319152B063A031926
:1005F000152B023A0319152B013A0319152B0E3A44
:100600000319152B023A0319152B0A3A0319182B53
:10061000023A0319252B063A0319252B0D3A031923
:10062000252B023A0319252B282B1F30F8002A2BE3
:100630008316DF080319212B1D30F80083122A2BA3
:1006400083161C30F80083122A2B1E30F8002A2B48
:100650000030F800080020308316ED00E901EA01BF
:10066000EB01EC016408FA006308F9006208F80085
:100670006108F7000310771C4B2B6508E907660833
:100680000318660FEA0767080318670FEB07680887
:100690000318680FEC07EC0CEB0CEA0CE90CFA0CF5
:1006A000F90CF80CF70CED0B3A2B83120800912192
:1006B0008316D7014730D6005C10DC10D608031D26
:1006C000642BD70803190C2E56088400831357187F
:1006D00083170008D800840A0008D900840A00089B
:1006E000DA00840A0008DB0083105B08E8005A087F
:1006F000E7005908E6005808E500EC010130EB007E
:100700005130EA008030E90083120E227A08831605
:10071000E0007908DF007808DE007708DD000430AB
:10072000DD07003003180130DE0700300318013008
:10073000DF07003003180130E0078314E130840044
:1007400083136008E8005F08E7005E08E6005D08C4
:10075000E500EC01EB01EA010730E90083120E220B
:10076000831661088312BC00BB014630BA008316B1
:100770005C18972CDB1BCC2B5B08013C031CE72B84
:10078000031DCC2B5A08E23C031CE72B031DCC2B8A
:100790005908843C031CE72BDC1CE72B83105B0807
:1007A000E8005A08E7005908E6005808E500EC019F
:1007B0000130EB005130EA008030E90083120E2254
:1007C0007808BE007708BD008316972C172CDB1B1A
:1007D000FF2B5B08013C031C172C031DFF2B5A0841
:1007E000E13C031C172C031DFF2B5908333C031C51
:1007F000172C031DFF2B58087F3C031C172C83105C
:100800005B08E8005A08E7005908E6005808E500C8
:10081000EC010130EB005130EA008030E900831236
:100820000E227808BE007708BD008316972CDC1CCA
:10083000282C0030D8028530031C8630D902E230E3
:10084000031CE330DA020130031C0230DB02362CD9
:100850008030D8023330031C3430D902E130031C1D
:10086000E230DA020130031C0230DB028312BA0AE2
:100870000319BB0A3B088316DE0083123A0883166D
:10088000DD006C305D07DF005E08E0000730031814
:100890000830E0076008E2005F08E1000130E40092
:1008A0009030E3008312C62277088316DF007A08AF
:1008B000E000DF08031D5F2CE00803198E2C6C306C
:1008C0005D07DF005E08E000073003180830E0072E
:1008D0000330DF05E001DF08031D912CE008031D54
:1008E000912C6C305D07DF005E08E00007300318D4
:1008F0000830E0076008E2005F08E100E4016430CE
:10090000E3008312C62277088316DF007A08E0002E
:10091000DF08031D8E2CE0080319912C0130F8002C
:10092000932C0030F800DC107818DC14B82B8312FC
:10093000B90183165C18552D0030DC180130DD003C
:10094000831239088316DE005D08DF008312ED2272
:100950008316DF010408DE005F10831B5F14E401CF
:10096000E301E2017808E100E8010130E7005130DD
:10097000E6008030E50083122B2383165E08840096
:1009800083135F188317DB1BDB2C5B087A02031CC5
:10099000DD2C031DDB2C5A087902031CDD2C031D02
:1009A000DB2C59087802031CDD2C031DDB2C770897
:1009B00058020318DD2C552D542D0030DC18013061
:1009C000DD00831239088316DE005D08DF00831224
:1009D000ED228316DF010408DE005F10831B5F1425
:1009E000E401E301E2017808E100E8010130E700F9
:1009F0005130E6008030E50083122B2383165E0819
:100A0000840083135F188317DB1B542D7A085B0265
:100A1000031C542D031D1C2D79085A02031C542D50
:100A2000031D1C2D78085902031C542D031D1C2D79
:100A300077085802031C542D0030DC180130DD000B
:100A4000831239088316DE005D08DF008312ED2271
:100A50008316DF010408DE005F10831B5F14E401CE
:100A6000E301E2017808E100E8010130E7005130DC
:100A7000E6008030E50083122B2383165E08840095
:100A800083135F1883177708D8027808031C780F40
:100A9000D9027908031C790FDA027A08031C7A0F4D
:100AA000DB028312B90A83169A2C83105B08E800D4
:100AB0005A08E7005908E6005808E500EC01013043
:100AC000EB005130EA008030E90083120E227708F3
:100AD000B8008316E401E301E201831238088316AB
:100AE000E100E8010130E7005130E6008030E50028
:100AF00083122B2377088316D8027808031C780FFB
:100B0000D9027908031C790FDA027A08031C7A0FDC
:100B1000DB0201308312B807831083165B08E800FC
:100B20005A08E7005908E6005808E500EC01EB0117
:100B30000E30EA001030E90083120E227708B70069
:100B40008316E001DF01DE01831237088316DD0022
:100B50006008E4005F08E3005E08E2005D08E10071
:100B6000E801E7010E30E6001030E50083122B2388
:100B700077088316D8027808031C780FD902790801
:100B8000031C790FDA027A08031C7A0FDB02831048
:100B90005B08E8005A08E7005908E6005808E50035
:100BA000EC01EB01EA013C30E90083120E227708E8
:100BB000B6008316DE01831236088316DD005E0858
:100BC000E0005D08DF00E2013C30E1001030E300AE
:100BD000F701FA01E00CDF0C031CF42D6108F707A4
:100BE0000318FA0A6208FA07FA0CF70CF90CF80C69
:100BF000E30BEA2D7808D8027908031C790FD90293
:100C00000030031C0130DA020030031C0130DB022B
:100C100058088312B50083163530F8000030F9000B
:100C20007908D5007808D4005308D7005208D600B8
:100C30005508D9005408D8000A30F8005808840034
:100C40008313591883170008F7005608840083138C
:100C50005718831777088000D60A0319D70AD80ACD
:100C60000319D90AF80B1E2E83128A150A12922B29
:100C70003108840083133218831703171F0880007C
:100C8000840A80010313B10A0319B20A080003178A
:100C90001908F80118020318502E1808F7005C2EE6
:100CA000F70108309A00980DF70D1908770203181C
:100CB000F700F80D9A0B532E03130800780803175A
:100CC0001608980064309900031347267708031725
:100CD000960078083030031D742E971C7D2E9719CE
:100CE0007D2E171A2030772E971117121714F80738
:100CF00078089F00031338260317160898000A3057
:100D000099000313472677080317960078083030B8
:100D1000031D902E9719962E171C962E171A203009
:100D2000F80778089F00031338260317303096071A
:100D300016089F0003133826080080080319BA2EEE
:100D40008316D7010408D6005710831B57140008D8
:100D500083120C1EA92E9900831656088400831353
:100D600057188317840A031DB82E8312850A831629
:100D700083129D2E8A150A12B02B8318C22EEA30D8
:100D800084008313F701F801F901FA018316EA01DF
:100D9000EB01EC01ED0169086804670466040319BE
:100DA000012F2030EE000310E20DE30DE40DE50D00
:100DB000EA0DEB0DEC0DED0D69086D02031DEA2E39
:100DC00068086C02031DEA2E67086B02031DEA2EF9
:100DD00066086A02031CFB2E6608EA026708031C09
:100DE000670FEB026808031C680FEC026908031C1C
:100DF000690FED020314F70DF80DF90DFA0DEE0B66
:100E0000D32E6A088000840A6B088000840A6C086C
:100E10008000840A6D08800083120800040883168D
:100E2000DA003B30E1009A30E000CA30DF00DE013A
:100E30000A30DC008314D630840083135908E5009F
:100E40005808E4005708E3005608E2006108E9008A
:100E50006008E8005F08E7005E08E6008312BD2630
:100E60007808F708031D4B2F83165C08013A031D11
:100E70003B2F83124B2F5A0803194D2F0F395C0259
:100E80000319442F0318552FDA1B552F5A1B4D2FCA
:100E900020304E2F83128316DA013030F70777089F
:100EA00083120C1E512F9900831683106108E500F0
:100EB0006008E4005F08E3005E08E200E901E80181
:100EC000E7010A30E6008312BD267A088316E100A6
:100ED0007908E0007808DF007708DE00DC0B1A2FC5
:040EE0008312080071
:101000000730831652078400831353188317000890
:10101000831203179000100891009301D6309200BC
:101020001108003A031303192828013A0319392833
:10103000033A03194A28013A03195B28073A0319AE
:101040006C28013A03197D28033A03198E28A02839
:10105000031712088400831313188317533080007A
:10106000840A75308000840A6E308000840A800112
:10107000B8280317120884008313131883174D3000
:101080008000840A6F308000840A6E308000840AF9
:101090008001B828031712088400831313188317DC
:1010A00054308000840A75308000840A65308000E6
:1010B000840A8001B82803171208840083131318C8
:1010C000831757308000840A65308000840A6430BA
:1010D0008000840A8001B828031712088400831353
:1010E0001318831754308000840A68308000840A03
:1010F00075308000840A8001B82803171208840024
:1011000083131318831746308000840A72308000DE
:10111000840A69308000840A8001B8280317120805
:10112000840083131318831753308000840A6130BE
:101130008000840A74308000840A8001B828031378
:10114000F8010830F70003171208840083131318FE
:10115000831778088A11031351208A158000F80A32
:10116000840AF70BB428B6280317A9280317B82850
:10117000203083160313D9000430520784008313F0
:10118000531883170008831203179000100891006A
:101190009301DA3092001108003A03130319F22880
:1011A000013A03190329033A03191429013A0319CF
:1011B0002529073A03193629013A03194729033A21
:1011C00003195829013A031969290F3A03197A2991
:1011D000013A03198B29033A03199C29013A03198F
:1011E000AD29BF290317120884008313131883172E
:1011F0004A308000840A61308000840A6E308000AA
:10120000840A8001D7290317120884008313131856
:10121000831746308000840A65308000840A62307B
:101220008000840A8001D7290317120884008313E1
:10123000131883174D308000840A61308000840ABF
:1012400072308000840A8001D729031712088400B5
:1012500083131318831741308000840A7030800094
:10126000840A72308000840A8001D729031712088B
:1012700084008313131883174D308000840A613073
:101280008000840A79308000840A8001D7290317FE
:10129000120884008313131883174A308000840ACD
:1012A00075308000840A6E308000840A8001D7295E
:1012B0000317120884008313131883174A30800021
:1012C000840A75308000840A6C308000840A8001B2
:1012D000D72903171208840083131318831741308A
:1012E0008000840A75308000840A67308000840A98
:1012F0008001D7290317120884008313131883175A
:1013000053308000840A65308000840A7030800089
:10131000840A8001D7290317120884008313131845
:1013200083174F308000840A63308000840A743051
:101330008000840A8001D7290317120884008313D0
:10134000131883174E308000840A6F308000840A9F
:1013500076308000840A8001D729031712088400A0
:1013600083131318831744308000840A653080008B
:10137000840A63308000840A8001D7290313F801AE
:101380000830F7000317120884008313131883171B
:1013900078088A11031351208A158000F80A840AFC
:1013A000F70BD329D5290317C8290317D7290330E9
:1013B00083160313520784008313531883170008FE
:1013C0008312031790000230831603135207840020
:1013D00083135318831700088312031791000130F9
:1013E00083160313520784008313531883170008CE
:1013F0008312031792008316031352088400831389
:1014000053188317000883120317930005308316BF
:10141000031352078400831353188317840A0008A8
:101420008312031795008403000894006C3094071E
:1014300007300318083095070313B201DD30B100FF
:10144000203003179F008A11031338268A150317CB
:10145000100896001B3097008A1103135E268A1528
:10146000203003179F008A11031338268A150317AB
:1014700011089600013097008A1103135E268A1521
:101480003A3003179F008A11031338268A15031771
:1014900012089600013097008A1103135E268A1500
:1014A0003A3003179F008A11031338268A15031751
:1014B00013089600013097008A1103135E268A15DF
:1014C000203003179F008A11031338268A1509302C
:1014D0008400031715089700140896009E0104085D
:1014E0009D001E10831B1E14170EF03899009907DB
:1014F000E23E9A00323E9C0017080F399A079A077D
:101500009C07E93E9B009B079B07160E0F399B0724
:101510009C079B0D9C0D9C099C0D16080F399C0780
:10152000990D073098000A309C079B03031C942AEE
:101530009B079A03031C982A9A079903031C9C2A69
:1015400099079803031CA02A1830840083170730DA
:101550001D051D1384071C30040203191D17000804
:10156000F700031DBB2A1D1BBB2A1D1AD12A9D197A
:10157000BB2A2030BE2A9D151D123030F707970177
:10158000040896001710831B171477089F008A1110
:10159000031338268A1503171608840083131718B7
:1015A0008317840A1D1FAB2A83160313540855049E
:1015B0000319062B831203179301D630920083166A
:1015C000031355088312031791008316031354085D
:1015D00083120317900012088400831313188317D3
:1015E000000894001008840083131118831714084E
:1015F000800080080319FF2A900A920AEB2A8316BA
:1016000003135408F8005508F9000A2BD630F800E7
:101610000030F90083128A150A129C2B03081F3927
:101620008300813083169900A63098009030831291
:101630009800B201B101C201C101C001BF01B530C2
:1016400090008E018F018E010C1083160C141F1454
:101650009F141F159F1101308312B4002330B30073
:101660004A300317A3000130A5009030A4005D307C
:101670008316900092019101831203138313AB012F
:10168000AC01C301C401C501C601C701C801C9013C
:10169000CA0148308316D2008A118312AE208A15FF
:1016A000963003178D0000308F008A110313C22873
:1016B0008A158A117F298A1564000A308316D200A0
:1016C0008A118312AE208A158316D301D2018A11A2
:1016D0008312E8298A157A08D2007908D10078089F
:1016E000D0007708CF004F084B02031D832B500812
:1016F0004C02031D832B51084D02031D832B5208FE
:101700004E020319F32B5208CE005108CD005008A9
:10171000CC004F08CB008316D3015330D2008A117E
:101720008312572B8A158316D3015330D200D5016B
:10173000A030D400831200288A1191218A157A08DA
:10174000E0007908DF007808DE007708DD000D3062
:101750000C1EA82B9900A030840083138A119D2EA3
:101760008A1520300C1EB22B99002D300C1EB62B82
:10177000990020300C1EBA2B990041308400520889
:101780008316D900831251088316D800831250089B
:101790008316D70083124F088316D6008A1183124E
:1017A0000E278A1520300C1ED32B99002D300C1ECD
:1017B000D72B990020300C1EDB2B99004130840080
:1017C00060088316D90083125F088316D80083123D
:1017D0005E088316D70083125D088316D6008A112F
:0A17E00083120E278A155C2B6300AC
:02400E00723FFF
:00000001FF
;PIC16F876
;CRC=85DA  CREATED="04-Mar-23 21:09"
